:10000E000000F88CF8F3F95BF9B8FA15FA67FAB94B
:10001E00FB04FB4BFB8FFBCFFC0CFC44FC79FCACD4
:10002E00FCDCFD09FD34FD5CFD82FDA61302000122
:10003E00120111011301130200011201110113012A
:10004E0013020001120111011301130114010E011B
:10005E000F010E010F011302000112011101130114
:10006E00130200011201110113011302000112010A
:10007E00110113010F010E010F010E010E011301EB
:10008E000E01130114010E010F01100113011202D2
:10009E001001130110010F010E01140213011401BE
:1000AE000E010F0110010F010E0214010E010F01BE
:1000BE001001031201130110010F0110010F0110A5
:1000CE00021201130110010F0110010F0110020F96
:1000DE00010E011401120113011201130214010E7B
:1000EE00010F011001130110011102120113011071
:1000FE00010F0110010F0110021201130110010F67
:10010E000110010F0110020F010E01140112011353
:10011E00011201130214010E010F0110011301103F
:10012E000111021201130110010F0110010F011034
:10013E00021201130110010F0110010F0110021321
:10014E000114021B011301120110010F0110010F06
:10015E000110020F010E0114011201130110011101
:10016E0002130313011301130313011301130313DA
:10017E0001130113031301130113031301130113CD
:10018E000313010004FF00110210021102140213E6
:10019E0004110210020E021004110210020E020CC3
:1001AE00040C020E021002110210020E020C020BBF
:1001BE00020C020E020C020B02090409020B020CC5
:1001CE00020B020902070209020B020C020E0411B5
:1001DE000210020E020C020B020C020E020C020E98
:1001EE0002110410020E020C020B02090207020990
:1001FE00020B02090207020504FF0020426164415E
:0F020E0070706C650020536B7920436974790020
:10060A00040B003A0195010F0001080002090000DD
:10043A0020B1217F147E0012058520B117E4F50F43
:10044A00F509F50A7BFF7A0279097D017F01120518
:10045A006230B1FD20B0227F147E0012058520B0E3
:10046A0018750F01E4F509F50A7BFF7A0279137D05
:0A047A00017F0112056230B0FD227F
:10021D0012062A1205F6D2AF7BFF7A0279097D010B
:10022D007F0112056212043AE50F25E0240BF8E672
:10023D00FE08E6F5828E83050AE50AAE0970020511
:10024D0009142582F582E5833EF583E493F508B420
:10025D00FF0EE4F509F50A7FE87E0312058580C5DA
:10026D00E50825E0240EF582E43400F583E493FEE1
:10027D00740193FF1206387F01120003E50F25E08C
:10028D00240BF8E6FE08E6F5828E83050AE50AAE34
:10029D000970020509142582F582E5833EF583E494
:1002AD009375F082A4FFAEF0120585E4FF120003F2
:0C02BD00D2A57F0F7E00120585020232E0
:03000B000203E904
:1003E900C0E0C0F0C083C082C0D075D000C000C0DA
:1003F90001C002C003C004C005C006C007E5082546
:10040900E0240EF582E43400F583E493FE7401934D
:10041900FF120638B2A5D007D006D005D004D00304
:10042900D002D001D000D0D0D082D083D0F0D0E09B
:010439003290
:10058500E4FDFCC3ED9FEC9E5015E4FBFA0BBB00AC
:0F059500010AEB647B4A70F50DBD00010C80E498
:0105A4002234
:0E062A00438901758CFF758AFFD2A9C28C220C
:0B063800AD07AC068C8CAF058F8A224A
:06000300EF24FF928C22A5
:06061B00C2A58F80D2A7EA
:080621007F027EEFDEFEDFFC2C
:0106290022AE
:0A064300C2A612061BC2A702062180
:1005A500CFCDCFCECCCE1203087C007D0A12030836
:0405B500ED2430FF02
:0A05B900D2A612061BC2A7020621FB
:1005E000AE07BE0104ED148006BE0209ED243F44AF
:0605F00080FF1206432209
:1005F6007F381206437F0C1206437F061206437F9E
:0406060001020643A4
:0A064D00AC031205E0AF040205B98A
:060562008B2A8A2B892C74
:100568001205E0E4FDAB2AAA2BA92C8D8275830025
:0C0578001202C9FF60061205B90D80E9EF
:010584002254
:0C052F007F0AEA24FFFDE434FFFC7E009C
:08053B008E268F278C288D29E4
:100543007F017E00E4FBEBC39529E5286480F87402
:0E0553008098500AAC26AD271202F60B80E805
:010561002277
:0405C3008A198B1AEC
:1005C7001205E0AA1BEAD39400400D12052FAC19BF
:0805D700AD1A1205A51A80ED12
:0105DF0022F9
:100484001205E0C3EA64809480400B7F2B1205B907
:100494008A158B16800E7F2D1205B9C3E49BF516C1
:1004A400E49AF515AA14EAD39400400D12052FAC72
:0904B40015AD161205A51A80ED24
:0104BD00221C
:0404BE008A1E8B1FE8
:1004C2001205E0AA20EAD3940040297F10120531D8
:1004D200AC1EAD1FCFCDCFCECCCE120308EF540F42
:1004E200FEC3940AEE5004243080022437FF120522
:0404F200B91A80D1E2
:0104F60022E3
:0404F7008A238B24A5
:1004FB001205E0AA25EAD394004028EA24FFFDE484
:10050B0034FFFC7F027E0012053BAC23AD24CFCD24
:10051B00CFCECCCE120308EF54012430FF1205B915
:03052B001A80D261
:01052E0022AA
:0300000002035D9B
:0C035D00787FE4F6D8FD75812C0203A423
:1002C900BB010CE58229F582E5833AF583E02250EA
:1002D90006E92582F8E622BBFE06E92582F8E22234
:0D02E900E58229F582E5833AF583E493224E
:1002F600EF8DF0A4A8F0CF8CF0A428CE8DF0A42E1C
:02030600FE22D5
:10030800BC000BBE0029EF8DF084FFADF022E4CCD9
:10031800F875F008EF2FFFEE33FEEC33FCEE9DECA2
:10032800984005FCEE9DFE0FD5F0E9E4CEFD22EDE8
:10033800F8F5F0EE8420D21CFEADF075F008EF2F32
:10034800FFED33FD4007985006D5F0F222C398FD23
:050358000FD5F0EA22C0
:1003690002021DE493A3F8E493A34003F68001F28B
:1003790008DFF48029E493A3F85407240CC8C33395
:10038900C4540F4420C8834004F456800146F6DF64
:10039900E4800B010204081020408090060AE47EE4
:1003A900019360BCA3FF543F30E509541FFEE49359
:1003B900A360010ECF54C025E060A840B8E493A320
:1003C900FAE493A3F8E493A3C8C582C8CAC583CA4B
:1003D900F0A3C8C582C8CAC583CADFE9DEE780BE03
:01061A0000DF
:00000001FF
